:04000000020766325B
:03000B000203935A
:0100130032BA
:01001B0032B2
:030023000204F4E0
:0307BF000200260F
:0500260012002B80FE1A
:06002B00E4F514F515F5E3
:040031000EF50F7544
:060035001001E4F5117555
:07003B00080AE4F509E4F5F1
:0400420016F517F5A3
:0400460018F519F59B
:0C004A001AF51BC2B2C2B3C2B4759850C4
:0C005600758DF3D28EE4F50BF50CF588E7
:0E00620075892175A882758AE0758C3CD28C58
:07007000750A007A007B0015
:0B007700C3EA9405EB648094805021E4
:0C008200EA24FFF582EB3406F583E493DA
:0E008E00FCF582C002C003120696D003D00219
:07009C000ABA00D70B80D463
:0400A3007A007B0064
:0B00A700C3EA9407EB64809480503B98
:0C00B200EA24DFF582EB3406F583E493CA
:0E00BE00FCF582C002C003120696D003D002E9
:0C00CC00EA2449F582EB3407F583E49345
:0E00D800FCF582C002C0031206A9D003D002BC
:0500E6000ABA00BD0B89
:0200EB0080BAD9
:0400ED007A007B001A
:0B00F100C3EA9410EB64809480503B45
:0C00FC00EA24EFF582EB3406F583E49370
:0E010800FCF582C002C003120696D003D0029E
:0C011600EA2451F582EB3407F583E493F2
:0E012200FCF582C002C0031206A9D003D00271
:050130000ABA00BD0B3E
:0201350080BA8E
:0E01370012054AAA82AB83758280C002C00303
:0C014500120696D003D002E5147004E509
:0301510015600234
:020154008033F6
:06015600BA00DEBB00DB75
:08015C00751401E4F515E4F54A
:0701640012F5137582011270
:05016B000696E51224D8
:06017000DFF582E5133407
:0D01760006F583E493FCF58212069675826F
:06018300761206A980AE11
:09018900E514B40104E51560035E
:0301920002034E17
:06019500BA0751BB004E49
:08019B00E5127004E513609405
:0B01A300758201120696151274FFB55C
:0401AE001202151311
:0701B200E51224DFF582E5F0
:0B01B900133406F583E493FCF582127A
:0901C40006967582761206A9E583
:0601CD000E24EFF582E5AF
:0B01D3000F3406F583E493FCF5821264
:0901DE00069675822A1206A90298
:0201E7000137DE
:0601E900BA0954BB0051ED
:0A01EF00E512B40F07E513700302D8
:0201F9000137CC
:0A01FB007582011206960512E4B5A4
:0402050012020513C9
:07020900E51224DFF582E598
:0B021000133406F583E493FCF5821222
:09021B0006967582761206A9E52B
:060224000E24EFF582E557
:0B022A000F3406F583E493FCF582120C
:09023500069675822A1206A90240
:02023E00013786
:06024000BA0A0CBB000924
:07024600751402E4F5150236
:02024D00013777
:06024F00BA0852BB004F8B
:06025500E512B50E4AE5BA
:04025B0013B50F4583
:07025F00751601E4F5170517
:060266001AE4B51A0205BE
:01026C001B76
:07026D00E51224DFF582E534
:0B027400133406F583E493FCF58212BE
:09027F0006967582761206A9E5C7
:060288000E24EFF582E5F3
:0B028E000F3406F583E493FCF58212A8
:09029900069675822D1206A902D9
:0202A200013722
:0602A400BA0B59BB005625
:0702AA00E51224DFF582E5F7
:0B02B100133406F583E493FCF5821281
:0902BC0006967582761206A9E58A
:0602C5000E24EFF582E5B6
:0B02CB000F3406F583E493FCF582126B
:0902D600069675822D1206A9900E
:0B02DF0006DFE493FCF582120696E5B2
:0602EA001A2438F582E53C
:0B02F0001B3407F583E493FCF5821239
:0502FB0006A902013715
:08030000BA0E05BB00028003E8
:03030800020137B8
:09030B00740FC39512F512E4957C
:0403140013F513E5E5
:060318001224DFF582E56E
:0B031E00133406F583E493FCF5821213
:0903290006967582761206A9E51C
:060332000E24EFF582E548
:0B0338000F3406F583E493FCF58212FD
:09034300069675822D1206A9022E
:02034C00013777
:09034E00E514B40204E515600396
:0303570002013769
:0C035A00751401E4F515BA070CBB00098E
:0703660075080AE4F5090225
:02036D00013756
:06036F00BA080CBB0009F6
:07037500750814E4F509020C
:02037C00013747
:08037E00BA0905BB000280036F
:030386000201373A
:0703890075081EE4F50902EE
:02039000013733
:010392002248
:0E039300C0E0C0F0C082C083C002C003C0043E
:0E03A100C005C006C007C000C001C0D075D0A6
:0C03AF0000758AE0758C3C050AE50AFA2E
:0C03BB003395E0FBEAB50806EBB509023B
:0203C7008003B1
:0303C9000204D952
:0C03CC00E514B40108E51570047401800C
:0103D8000123
:0103D900E43F
:0603DA00FA70030204ACFE
:0803E000E5167004E517600347
:0303E8000204AC60
:0903EB00E510B40104E511600203
:0203F400805631
:0903F600E50EB40F04E50F6045AB
:0A03FF00758201120696050EE4B5A2
:040409000E02050FCB
:07040D00E51224DFF582E592
:0B041400133406F583E493FBF582121D
:09041F0006967582761206A9E525
:060428000E24EFF582E551
:0B042E000F3406F583E493FBF5821207
:09043900069675822A1206A9023A
:0204420004D6DE
:06044400E4F510F51102C1
:02044A0004D6D6
:08044C00E5107004E5116003E6
:030454000204D6C9
:08045700E50E7004E50F60459D
:0B045F00758201120696150E74FFB5A1
:04046A000E02150F5A
:07046E00E51224DFF582E531
:0B047500133406F583E493FBF58212BC
:0904800006967582761206A9E5C4
:060489000E24EFF582E5F0
:0B048F000F3406F583E493FBF58212A6
:0A049A00069675822A1206A9803228
:0804A400751001E4F511802A36
:0304AC00EA6027DC
:0904AF00E516B40104E517600232
:0204B800801CA6
:0704BA000518E4B518020566
:0104C1001921
:0904C200E518B40304E519600219
:0204CB008009A6
:0604CD00E4F518F519F535
:0304D30016F51704
:0304D600750A00A4
:0E04D900D0D0D001D000D007D006D005D0047E
:0D04E700D003D002D083D082D0F0D0E0321C
:0E04F400C0E0C0F0C082C083C002C003C004DC
:0E050200C005C006C007C000C001C0D075D043
:06051000001098028017A4
:08051600750B01E4F50C859959
:08051E000D7582C012069685DE
:070526000D821206A98002FC
:02052D00C29971
:0E052F00D0D0D001D000D007D006D005D00427
:0D053D00D003D002D083D082D0F0D0E032C5
:04054A007AFF7BFFBA
:04054E007C007D00B0
:0E055200C3EC9404ED648094804003020671B3
:0C056000EC2404F582ED3407F583E493ED
:0C056C00FE8E90E590FFB50603020663CA
:0C057800EC2428F582ED3407F583E493B1
:07058400FEE590FFB5061D26
:0D058B008C06EDCE25E0CE33FFEE2408F502
:0D05980082EF3407F583E493FA740193FBBE
:0305A500020663E8
:0E05A8008C0674042E90072893FFE590F8B59A
:0205B60007310B
:0E05B80074042EC2D575F00230E704B2D5F4FB
:0105C6000430
:0E05C700A430D50AF42401C5F0F43400C5F0C8
:0C05D5002408F582740735F0F583E493E8
:0805E100FA740193FB020663AA
:0E05E90074082E90072893FFE590F8B50730B0
:0E05F70074082EC2D575F00230E704B2D5F4B8
:0106050004F0
:0E060600A430D50AF42401C5F0F43400C5F088
:0C0614002408F582740735F0F583E493A8
:07062000FA740193FB803C1A
:0E062700740C2E90072893FFE590F8B5072E6F
:0E063500740C2EC2D575F00230E704B2D5F475
:0106430004B2
:0E064400A430D50AF42401C5F0F43400C5F04A
:0C0652002408F582740735F0F583E4936A
:05065E00FA740193FB9A
:06066300BAFF0BBBFF080B
:050669000CBC00010DB6
:03066E0002055230
:09067100BAFF06BBFF0302054EAF
:08067A00EC2404FCED3407FD43
:0E0682008C828D83E493FE8E90E590FFB5068A
:01069000F178
:040691008A828B834B
:010695002242
:0E069600AA829003E8C0021206C0D0028AA019
:0406A400D2B4C2B456
:0106A800222F
:0E06A900AA829003E8C0021206C0D0028AA006
:0806B700D2B4D2B2C2B4C2B247
:0106BF002218
:0806C000AA82AB837C007D00DF
:0E06C800C3EC9AED64808BF063F08095F050E7
:0106D600071C
:0706D7000CBC00ED0D80EAF0
:0106DE0022F9
:0E06DF00808182838485868788898A8B8C8DB2
:0206ED008E8FEE
:0E06EF00CEC6C3CCC8C1CFC5C2CBC7C4CAC912
:0206FD00CDC06E
:0506FF00380E060201A7
:04070400FEFDFBF704
:0E0708000100020003000C00040005000600C2
:0E0716000D000700080009000E000A00000098
:040724000B000F00B7
:0E072800EEEDEBE7DEDDDBD7BEBDBBB77E7DC1
:020736007B77CF
:0E07380030313233343536373839616263641C
:03074600656600E5
:0807490068616D7374657200B4
:0E0751007072657373203020746F20737461B2
:03075F00727400B1
:06079500E478FFF6D8FD38
:080773007900E94400601B7AE3
:05077B00009007C278A8
:030780000075A061
:0C07830000E493F2A308B8000205A0D91E
:06078F00F4DAF275A0FF90
:08079B007800E84400600A79CF
:0307A3000075A03E
:0607A60000E4F309D8FC99
:0807AC007800E84400600C79BC
:0B07B40000900000E4F0A3D8FCD9FA8C
:0307660075811B7F
:0A076900120762E582600302002619
:030762007582009D
:010765002271
:00000001FF
