:040000000202EA32DC
:01000B0032C2
:0100130032BA
:01001B0032B2
:030023000200B127
:030343000200268F
:0500260012002B80FE1A
:0E002B00C2B2C2B3C2B4759850758920758DEB
:0C003900FDD28E75A890E4F508F509FAD8
:01004500FBBF
:0B004600C3EA9405EB64809480502115
:0C005100EA249CF582EB3402F583E49372
:0E005D00FCF582C002C003120253D003D00291
:07006B000ABA00D70B80D494
:09007200E508B40104E50960028F
:02007B00800AF9
:06007D00E4F508F5098519
:040083000A9980EB6B
:0E008700120107AA82AB83758280C002C003FB
:0D009500120253D003D002EA24D5F582EB0D
:0D00A2003402F583E493FAF58212026680C1
:0100AF00C28E
:0100B000222D
:0E00B100C0E0C0F0C082C083C002C003C00423
:0E00BF00C005C006C007C000C001C0D075D08B
:0600CD00001098028017EC
:0800D300750801E4F5098599A7
:0800DB000A7582C01202538570
:0700E3000A8212026680028E
:0200EA00C299B9
:0E00EC00D0D0D001D000D007D006D005D0046F
:0D00FA00D003D002D083D082D0F0D0E0320D
:040107007AFF7BFF01
:04010B007C007D00F7
:0E010F00C3EC9404ED64809480400302022E41
:0C011D00EC24A1F582ED3402F583E4939C
:0C012900FE8E90E590FFB5060302022058
:0C013500EC24C5F582ED3402F583E49360
:07014100FEE590FFB5061D6D
:0D0148008C06EDCE25E0CE33FFEE24A5F5AC
:0D01550082EF3402F583E493FA740193FB0A
:0301620002022076
:0E0165008C0674042E9002C593FFE590F8B549
:02017300073152
:0E01750074042EC2D575F00230E704B2D5F442
:010183000477
:0E018400A430D50AF42401C5F0F43400C5F00F
:0C01920024A5F582740235F0F583E49397
:08019E00FA740193FB02022038
:0E01A60074082E9002C593FFE590F8B507305F
:0E01B40074082EC2D575F00230E704B2D5F4FF
:0101C2000438
:0E01C300A430D50AF42401C5F0F43400C5F0D0
:0C01D10024A5F582740235F0F583E49358
:0701DD00FA740193FB803C62
:0E01E400740C2E9002C593FFE590F8B5072E1F
:0E01F200740C2EC2D575F00230E704B2D5F4BD
:0102000004F9
:0E020100A430D50AF42401C5F0F43400C5F091
:0C020F0024A5F582740235F0F583E49319
:05021B00FA740193FBE1
:06022000BAFF0BBBFF0852
:050226000CBC00010DFD
:03022B0002010FBE
:09022E00BAFF06BBFF0302010B3D
:08023700EC24A1FCED3402FDF2
:0E023F008C828D83E493FE8E90E590FFB506D1
:01024D00F1BF
:04024E008A828B8392
:010252002289
:0E025300AA829003E8C00212027DD0028AA0A7
:04026100D2B4C2B49D
:010265002276
:0E026600AA829003E8C00212027DD0028AA094
:08027400D2B4D2B2C2B4C2B28E
:01027C00225F
:08027D00AA82AB837C007D0026
:0E028500C3EC9AED64808BF063F08095F0502E
:010293000763
:070294000CBC00ED0D80EA37
:01029B002240
:05029C00380E0602010E
:0402A100FEFDFBF76C
:0E02A5000100020003000C000400050006002A
:0E02B3000D000700080009000E000A00000000
:0402C1000B000F001F
:0E02C500EEEDEBE7DEDDDBD7BEBDBBB77E7D29
:0202D3007B7737
:0E02D500303132333435363738396162636484
:0302E3006566004D
:06031900E478FFF6D8FDB8
:0802F7007900E94400601B7A64
:0502FF000090034678A9
:030304000075A0E1
:0C03070000E493F2A308B8000205A0D99E
:06031300F4DAF275A0FF10
:08031F007800E84400600A794F
:030327000075A0BE
:06032A0000E4F309D8FC19
:080330007800E84400600C793C
:0B03380000900000E4F0A3D8FCD9FA0C
:0302EA0075810A11
:0A02ED001202E6E58260030200261B
:0302E6007582001E
:0102E90022F2
:00000001FF
