:0300000002092BC7
:030984000200036B
:0500030012000880FE60
:0C0008007405C0E0E4C0E07425C0E074A2
:0D00140000C0E07402C0E012004FE581243E
:03002100FBF5816B
:0100240022B9
:030025002564004F
:06095A00E478FFF6D8FD71
:080938007900E94400601B7A1C
:0509400000900987781A
:030945000075A09A
:0C09480000E493F2A308B8000205A0D957
:06095400F4DAF275A0FFC9
:080960007800E84400600A7908
:030968000075A077
:06096B0000E4F309D8FCD2
:080971007800E84400600C79F5
:0B09790000900000E4F0A3D8FCD9FAC5
:06002800C00985810912E8
:02002E000000D0
:06003000850981D00922C0
:0800360085822F85833085F0DF
:05003E0031E4F52CF592
:040043002DF52E85E4
:03004700083290EC
:05004A00002802012561
:06004F00C009858109E5EE
:070055000924FBF532E4F57C
:04005C002CF52DF55D
:070060002EE50924FBF886E0
:060067002F088630088618
:05006D00319000281293
:060072000125AA82AB8308
:06007800850981D0092278
:0C007E00AA82C374099AB3E433FB600645
:06008A0074302AFB800F18
:0300900030000637
:0600930074572AFC8004F2
:0400990074372AFC92
:02009D008C03D2
:05009F00C024C025C0D3
:0600A4002674B4C0E074F4
:0600AA0000C0E0C022C00E
:0400B000238B8222FA
:0600B40015811581158184
:0100BA002223
:0E00BB00E582FAC4540FF582C00212007ED016
:0900C90002740F5AF58202007E58
:0600D20085820A750B2077
:0400D800E50B60488C
:0800DC00E52B25E0FCAD27AE89
:0400E40028AF29E533
:0C00E8002AFB235401FA4CF52BED2DFDF2
:0C00F400EE33FEEF33FFEB33FB8D278E65
:04010000288F298B90
:050104002AC3E52B9564
:030109000A401495
:06010C00E52BC3950AF586
:070112002B74014527FAAB35
:0401190028AC29AD38
:03011D002A8A2704
:04012000150B80B487
:0101240022B8
:0701250085822285832385FA
:03012C002C2485FB
:03012F002D2585F6
:040132002E26E4F59C
:030136003FF54052
:05013900AC2FAD30AE5B
:0D013E00318C828D838EF01208D7FF740182
:08014B002CF52FE43DF5308E88
:0801530031EFFC700302089774
:05015B00BC2502800339
:0301600002087121
:05016300C201C202C24E
:0401680003C204C208
:05016C0005753300C21F
:0401710006C207C2F9
:07017500087534007FFFAAAA
:04017C002FAB30AEC7
:01018000314D
:0E0181008A828B838EF01208D7FCA3AA82AB71
:06018F00838A2F8B308EE5
:0401950031BC25262E
:05019900C024C025C0D8
:06019E002674AEC0E074FF
:0601A40001C0E0C022C012
:0401AA00238C8222FE
:0C01AE00158115811581053FE4B53F0265
:0201BA000540FE
:0301BC0002013904
:0D01BF008C82C002C003C004C006C007123D
:0E01CC0008FFE582D007D006D004D003D00291
:0201DA0060269D
:0301DC00BFFF154D
:0C01DF00E53475F00AA4FDEC24D02DF5E9
:0301EB003460027B
:0201EE008091FE
:0401F000D202808D2A
:0E01F400EF75F00AA4FDEC24D02DFF0201816E
:03020200BC2E050A
:050205007F00020181F1
:0D020A008C82C002C003C004C006C00712F1
:0D0217000917E58224FF9200D007D006D021
:0802240004D003D002300003F6
:03022C005304DF99
:05022F00BC2002805517
:05023400BC2B02804B11
:05023900BC2D02804114
:05023E00BC4202804BF0
:05024300BC43028050E5
:06024800BC44030204DFC8
:06024E00BC46030204F5AA
:06025400BC49030204DFB7
:05025A00BC4C028034E1
:06025F00BC4F030204E69F
:06026500BC500302041767
:05026B00BC5302805BA2
:06027000BC55030204EB83
:06027600BC58030204F075
:03027C000204F980
:05027F00D20102018123
:05028400D2030201811C
:05028900D20402018116
:05028E00D2060201810F
:05029300D20702018109
:0C029800E53224FEF8883286050886074F
:0802A400188D82C024C025C0A2
:0602AC002674BAC0E074E4
:0602B20002C0E0C022C002
:0202B8002322FF
:0C02BA00158115811581053FE4B53F0258
:0202C6000540F1
:0302C80002051C10
:0C02CB00E53224FDF8883286050886071D
:0A02D70008860618188D278F288E60
:0D02E100298D828F838EF01208AFAD82AEA2
:0602EE00838D0420015B7A
:0602F400C3EC95345055E7
:0702FA00E534C39CF534AEAE
:040301003FAF40AA20
:0103050034C3
:0C030600C0048A051A8A34E4BD0001041A
:0A031200FD8E3F8F40D004ED7033E4
:0C031C00C002C004C006C007C024C025F9
:07032800C026743AC0E07426
:06032F0003C0E0C022C083
:05033500237582202267
:0E033A00158115811581D007D006D004D002A0
:050348000EBE00BA0F1B
:02034D0080B777
:04034F00AA3FAB40D6
:0703530085278285288385C0
:07035A0029F01208D7FD8A0B
:060361003F8B40ED6055EA
:0403670085273C8525
:03036B00283D85A5
:05036E00293E74012589
:070373003CFDE4353DFEAF47
:04037A003E8D278EFF
:04037E00288F298516
:060382003C82853D8385ED
:0D0388003EF01208D7FDC002C003C004C043
:0403950024C025C09B
:060399002674A9C0E07407
:06039F0003C0E0C022C013
:0403A500238D822200
:0E03A900158115811581D004D003D0020ABA47
:0303B700009A0B9E
:0203BA0080972A
:0603BC0020010302051CF4
:0903C200C3EC9534400302051C54
:0703CB00E534C39CF534AFDB
:0103D20034F6
:0A03D3008F051F8F34E4BD00010404
:0903DD00FD8A3F8B40ED60030234
:0203E600051CF4
:0B03E800C002C003C007C024C025C035
:0603F300267404C0E07452
:0603F90004C0E0C022C0B8
:0503FF0023758220229D
:0E040400158115811581D007D003D0020ABAE8
:0304120000BF0B1D
:0204150080BCA9
:0C041700E53224FDF888328605088606D0
:0A04230008860718188D278E288F11
:08042D0029C374039529500452
:040435007D048002C0
:02043900AD29EB
:09043B00ED90089E93FDC024C061
:0404440025C0267435
:0804480056C0E07404C0E0C0DE
:0604500022C0238D822270
:0B045600158115811581C024C025C050
:06046100267472C0E07475
:0604670004C0E0C022C049
:05046D002375823A2214
:0B047200158115811581C024C025C034
:06047D0026748EC0E0743D
:0604830004C0E0C022C02D
:05048900237582302202
:0B048E00158115811581C024C025C018
:060499002674AAC0E07405
:06049F0004C0E0C022C011
:0504A50023758278229E
:0A04AA00158115811581E529601800
:0704B400E529B403028011E9
:0904BB008528821200BB740225A1
:0504C4003FF53FE435A7
:0304C90040F540BB
:0904CC008527821200BB7406258D
:0504D5003FF53FE43596
:0504DA0040F540803DEB
:0704DF00D20575330A8036D7
:0504E6007533088031B0
:0504EB0075330A802CAE
:0504F0007533108027A8
:0404F500D208802386
:0504F900C024C025C075
:0604FE0026740EC0E0743C
:0605040005C0E0C022C0AA
:04050A00238C82229A
:0C050E00158115811581053FE4B53F0201
:02051A0005409A
:06051C002008030205A007
:0C052200E53224FCF888328605088606C5
:0C052E000886070886021818188D278E12
:04053A00288F298A53
:03053E002A7527F4
:03054100A4752876
:05054400087529028585
:030549003F3C85AF
:02054C00403D30
:05054E00AA27AB28AC58
:0C0553002974012AFDE43BFE8C078D2773
:0B055F008E288F298A828B838CF0127B
:07056A0008D7FD8D04853C5C
:030571003F853D86
:0705740040ED7003020139A4
:05057B00C024C025C0F2
:06058000267490C0E07437
:0605860005C0E0C022C028
:04058C00238C822218
:0C059000158115811581053CE4B53CB2D5
:02059C00053D1B
:02059E0080AE2D
:0705A000E53370030201398D
:0405A700753B3A3036
:0205AB00062C1C
:0C05AD00E53214F888328606EE3395E043
:0805B900FFFDFA8E278F288D4B
:0405C100298A2A2039
:0205C500055ED1
:0B05C700AD277E007F007A008D278E9C
:0405D200288F298ABB
:0305D6002A804C2C
:0305D90030071FC9
:0C05DC00E53224FCF8883286050886060B
:0C05E8000886070886021818188D278E58
:0405F400288F298A99
:0305F8002A802A2C
:0C05FB00E53224FEF888328605088606EA
:0C06070018EE3395E0FFFA8D278E288F47
:04061300298A2A20E6
:02061700050CD0
:09061900AD27AE287F007A008FA6
:03062200298A2AF8
:0306250030052578
:05062800AA27AB28AD7C
:07062D0029E52AFE30E71762
:0E063400C3E49AFAE49BFBE49DFDE49EFE8A7B
:04064200278B288D4D
:05064600298E2A80024C
:02064B00C205E6
:06064D00D209A83B7A006F
:0B065300752B00853382C002C000122E
:09065E0000D2D000D00220090DE9
:0D066700E52BC4FB8605ED4BA6E0188004D2
:04067400AB2BA60303
:080678000A8A04B209883BE57F
:04068000274528459D
:0506840029452A70CA9F
:04068900E5346002F2
:02068D008003E8
:03068F00753401BE
:03069200200254EF
:03069500200151F0
:0906980074012CFAAB3FAD40AE39
:0106A1003424
:0B06A200C3EA9EE433FF8B3F8D408EC7
:0406AD0034EF60388E
:0D06B100C002C003C004C005C006C024C0C4
:0406BE0025C02674B9
:0806C200D1C0E07406C0E0C0E5
:0706CA0022C02375822022EB
:0E06D100158115811581D006D005D004D00307
:0706DF00D0020BBB00010D6E
:0306E6001E80B9BA
:0306E90030052CAD
:0706EC00C004C024C025C0BA
:0606F300267404C0E0744F
:0606F90007C0E0C022C0B2
:0506FF002375822D228D
:0C070400158115811581D004053FE4B576
:040710003F0205405F
:0407140015348061B7
:05071800BC0002805C42
:03071D0030032C7A
:07072000C004C024C025C085
:06072700267438C0E074E6
:06072D0007C0E0C022C07D
:050733002375822B225A
:0C073800158115811581D004053FE4B542
:040744003F0205402B
:040748001534802DB7
:03074C0030042A4C
:07074F00C004C024C025C056
:06075600267467C0E07488
:06075C0007C0E0C022C04E
:05076200237582202236
:0C076700158115811581D004053FE4B513
:040773003F020540FC
:02077700153437
:0307790020015309
:05077C00AA3FAB40ADF7
:010781003443
:0C0782008D061D8D34C3EC9EE433FE8A0E
:06078E003F8B40EE604CC1
:030794003002042C
:040797007E3080022E
:02079B007E20BE
:0C079D00C002C003C004C005C024C02579
:0707A900C02674BAC0E07421
:0607B00007C0E0C022C0FA
:0407B600238E8222EA
:0E07BA00158115811581D005D004D003D00221
:0507C8000ABA00B60BA7
:0207CD0080B3F7
:0607CF00C3EC9534500854
:0807D500E534C39CF5348003F8
:0307DD0075340070
:0507E000A83BAA3FAB9D
:0307E500408C0540
:0A07E8008D061D8A3F8B40EE603540
:0507F200B20920090C12
:0C07F700088606EEC4540FFE8E2B80070F
:070803008606740F5EF52B61
:0C080A00852B82C002C003C005C0001294
:0E081600007ED000D005D003D0020ABA00C484
:010824000BC8
:0208250080C190
:060827002001030201396B
:02082D00AD34E8
:0C082F008D061DC3E49EE433FE8A3F8B5F
:07083B0040EE7003020139D9
:0B084200C002C003C005C024C025C0D8
:06084D0026745EC0E07499
:0608530008C0E0C022C055
:0508590023758220223E
:0E085E00158115811581D005D003D0020ABA8C
:03086C0000C10BBD
:02086F0080BE49
:05087100C024C025C0F9
:06087600267486C0E07448
:06087C0008C0E0C022C02C
:04088200238C82221F
:0C088600158115811581053FE4B53F0286
:0208920005401F
:0308940002013925
:06089700853F82854083CD
:01089D002238
:06089E00495843502D00F3
:0B08A4003C4E4F20464C4F41543E009C
:0A08AF00AA82AB83ACF07D007E004E
:0E08B9008A828B838CF01208D7FFA3AA82AB31
:0408C70083EF600754
:0708CB000DBD00EA0E80E7FD
:0408D2008D828E8302
:0108D60022FF
:03092B0075814093
:0A092E00120913E5826003020003C2
:0E08D700E5F060101460151460141460131422
:0608E50014600374FF2201
:0808EB00C000A882E6D0002243
:0208F300E02201
:0208F50093224C
:0808F700C000A882E2D000223B
:0508FF00AA82BA3000DE
:020904004009A8
:05090600EA24C64004D4
:04090B0075820122CE
:03090F00758200EE
:0109120022C2
:03091300758200EA
:0109160022BE
:05091700AA82BA610094
:02091C00400990
:05091E00EA24854004FD
:0409230075820122B6
:03092700758200D6
:01092A0022AA
:00000001FF
