:03000000020928CA
:030981000200036E
:0500030012000880FE60
:0C000800741EC0E07400C0E07402C0E090
:0900140012004C158115811581C3
:01001D0022C0
:07001E0048656C6C6F2100C6
:06095700E478FFF6D8FD74
:080935007900E94400601B7A1F
:05093D00009009847820
:030942000075A09D
:0C09450000E493F2A308B8000205A0D95A
:06095100F4DAF275A0FFCC
:08095D007800E84400600A790B
:030965000075A07A
:0609680000E4F309D8FCD5
:08096E007800E84400600C79F8
:0B09760000900000E4F0A3D8FCD9FAC8
:06002500C00985810912EB
:02002B000000D3
:06002D00850981D00922C3
:0800330085822F85833085F0E2
:05003B0031E4F52CF595
:040040002DF52E85E7
:03004400083290EF
:0500470000250201226A
:06004C00C009858109E5F1
:070052000924FBF532E4F57F
:040059002CF52DF560
:07005D002EE50924FBF886E3
:060064002F08863008861B
:05006A00319000251299
:06006F000122AA82AB830E
:06007500850981D009227B
:0C007B00AA82C374099AB3E433FB600648
:0600870074302AFB800F1B
:03008D003000063A
:0600900074572AFC8004F5
:0400960074372AFC95
:02009A008C03D5
:05009C00C024C025C0D6
:0600A1002674B1C0E074FA
:0600A70000C0E0C022C011
:0400AD00238B8222FD
:0600B10015811581158187
:0100B7002226
:0E00B800E582FAC4540FF582C00212007BD01C
:0900C60002740F5AF58202007B5E
:0600CF0085820A750B207A
:0400D500E50B60488F
:0800D900E52B25E0FCAD27AE8C
:0400E10028AF29E536
:0C00E5002AFB235401FA4CF52BED2DFDF5
:0C00F100EE33FEEF33FFEB33FB8D278E68
:0400FD00288F298B94
:050101002AC3E52B9567
:030106000A401498
:06010900E52BC3950AF589
:07010F002B74014527FAAB38
:0401160028AC29AD3B
:03011A002A8A2707
:04011D00150B80B48A
:0101210022BB
:0701220085822285832385FD
:030129002C2485FE
:03012C002D2585F9
:04012F002E26E4F59F
:030133003FF54055
:05013600AC2FAD30AE5E
:0D013B00318C828D838EF01208D4FF740188
:080148002CF52FE43DF5308E8B
:0801500031EFFC70030208947A
:05015800BC250280033C
:03015D0002086E27
:05016000C201C202C251
:0401650003C204C20B
:0501690005753300C222
:04016E0006C207C2FC
:07017200087534007FFFAAAD
:040179002FAB30AECA
:01017D003150
:0E017E008A828B838EF01208D4FCA3AA82AB77
:06018C00838A2F8B308EE8
:0401920031BC252631
:05019600C024C025C0DB
:06019B002674ABC0E07405
:0601A10001C0E0C022C015
:0401A700238C822201
:0C01AB00158115811581053FE4B53F0268
:0201B700054001
:0301B9000201360A
:0D01BC008C82C002C003C004C006C0071240
:0E01C90008FCE582D007D006D004D003D00297
:0201D7006026A0
:0301D900BFFF1550
:0C01DC00E53475F00AA4FDEC24D02DF5EC
:0301E8003460027E
:0201EB00809101
:0401ED00D202808D2D
:0E01F100EF75F00AA4FDEC24D02DFF02017E74
:0301FF00BC2E050E
:050202007F0002017EF7
:0D0207008C82C002C003C004C006C00712F4
:0D0214000914E58224FF9200D007D006D027
:0802210004D003D002300003F9
:030229005304DF9C
:05022C00BC200280551A
:05023100BC2B02804B14
:05023600BC2D02804117
:05023B00BC4202804BF3
:05024000BC43028050E8
:06024500BC44030204DCCE
:06024B00BC46030204F2B0
:06025100BC49030204DCBD
:05025700BC4C028034E4
:06025C00BC4F030204E3A5
:06026200BC50030204146D
:05026800BC5302805BA5
:06026D00BC55030204E889
:06027300BC58030204ED7B
:030279000204F686
:05027C00D20102017E29
:05028100D20302017E22
:05028600D20402017E1C
:05028B00D20602017E15
:05029000D20702017E0F
:0C029500E53224FEF88832860508860752
:0802A100188D82C024C025C0A5
:0602A9002674B7C0E074EA
:0602AF0002C0E0C022C005
:0202B500232202
:0C02B700158115811581053FE4B53F025B
:0202C3000540F4
:0302C50002051916
:0C02C800E53224FDF88832860508860720
:0A02D40008860618188D278F288E63
:0D02DE00298D828F838EF01208ACAD82AEA8
:0602EB00838D0420015B7D
:0602F100C3EC95345055EA
:0702F700E534C39CF534AEB1
:0402FE003FAF40AA24
:0103020034C6
:0C030300C0048A051A8A34E4BD0001041D
:0A030F00FD8E3F8F40D004ED7033E7
:0C031900C002C004C006C007C024C025FC
:07032500C0267437C0E0742C
:06032C0003C0E0C022C086
:0503320023758220226A
:0E033700158115811581D007D006D004D002A3
:050345000EBE00BA0F1E
:02034A0080B77A
:04034C00AA3FAB40D9
:0703500085278285288385C3
:0703570029F01208D4FD8A11
:06035E003F8B40ED6055ED
:0403640085273C8528
:03036800283D85A8
:05036B00293E7401258C
:070370003CFDE4353DFEAF4A
:040377003E8D278E02
:04037B00288F298519
:06037F003C82853D8385F0
:0D0385003EF01208D4FDC002C003C004C049
:0403920024C025C09E
:060396002674A6C0E0740D
:06039C0003C0E0C022C016
:0403A200238D822203
:0E03A600158115811581D004D003D0020ABA4A
:0303B400009A0BA1
:0203B70080972D
:0603B900200103020519FA
:0903BF00C3EC953440030205195A
:0703C800E534C39CF534AFDE
:0103CF0034F9
:0A03D0008F051F8F34E4BD00010407
:0903DA00FD8A3F8B40ED60030237
:0203E3000519FA
:0B03E500C002C003C007C024C025C038
:0603F000267401C0E07458
:0603F60004C0E0C022C0BB
:0503FC002375822022A0
:0E040100158115811581D007D003D0020ABAEB
:03040F0000BF0B20
:0204120080BCAC
:0C041400E53224FDF888328605088606D3
:0A04200008860718188D278E288F14
:08042A0029C374039529500455
:040432007D048002C3
:02043600AD29EE
:09043800ED90089B93FDC024C067
:0404410025C0267438
:0804450053C0E07404C0E0C0E4
:06044D0022C0238D822273
:0B045300158115811581C024C025C053
:06045E0026746FC0E0747B
:0604640004C0E0C022C04C
:05046A002375823A2217
:0B046F00158115811581C024C025C037
:06047A0026748BC0E07443
:0604800004C0E0C022C030
:05048600237582302205
:0B048B00158115811581C024C025C01B
:060496002674A7C0E0740B
:06049C0004C0E0C022C014
:0504A2002375827822A1
:0A04A700158115811581E529601803
:0704B100E529B403028011EC
:0904B8008528821200B8740225A7
:0504C1003FF53FE435AA
:0304C60040F540BE
:0904C9008527821200B874062593
:0504D2003FF53FE43599
:0504D70040F540803DEE
:0704DC00D20575330A8036DA
:0504E3007533088031B3
:0504E80075330A802CB1
:0504ED007533108027AB
:0404F200D208802389
:0504F600C024C025C078
:0604FB0026740BC0E07442
:0605010005C0E0C022C0AD
:04050700238C82229D
:0C050B00158115811581053FE4B53F0204
:0205170005409D
:0605190020080302059D0D
:0C051F00E53224FCF888328605088606C8
:0C052B000886070886021818188D278E15
:04053700288F298A56
:03053B002A7527F7
:03053E00A175287C
:05054100087529028588
:030546003F3C85B2
:02054900403D33
:05054B00AA27AB28AC5B
:0C0550002974012AFDE43BFE8C078D2776
:0B055C008E288F298A828B838CF0127E
:0705670008D4FD8D04853C62
:03056E003F853D89
:0705710040ED7003020136AA
:05057800C024C025C0F5
:06057D0026748DC0E0743D
:0605830005C0E0C022C02B
:04058900238C82221B
:0C058D00158115811581053CE4B53CB2D8
:02059900053D1E
:02059B0080AE30
:07059D00E533700302013693
:0405A400753B3A3039
:0205A800062C1F
:0C05AA00E53214F888328606EE3395E046
:0805B600FFFDFA8E278F288D4E
:0405BE00298A2A203C
:0205C200055ED4
:0B05C400AD277E007F007A008D278E9F
:0405CF00288F298ABE
:0305D3002A804C2F
:0305D60030071FCC
:0C05D900E53224FCF8883286050886060E
:0C05E5000886070886021818188D278E5B
:0405F100288F298A9C
:0305F5002A802A2F
:0C05F800E53224FEF888328605088606ED
:0C06040018EE3395E0FFFA8D278E288F4A
:04061000298A2A20E9
:02061400050CD3
:09061600AD27AE287F007A008FA9
:03061F00298A2AFB
:030622003005257B
:05062500AA27AB28AD7F
:07062A0029E52AFE30E71765
:0E063100C3E49AFAE49BFBE49DFDE49EFE8A7E
:04063F00278B288D50
:05064300298E2A80024F
:02064800C205E9
:06064A00D209A83B7A0072
:0B065000752B00853382C002C0001231
:09065B0000CFD000D00220090DEF
:0D066400E52BC4FB8605ED4BA6E0188004D5
:04067100AB2BA60306
:080675000A8A04B209883BE582
:04067D0027452845A0
:0506810029452A70CAA2
:04068600E5346002F5
:02068A008003EB
:03068C00753401C1
:03068F00200254F2
:03069200200151F3
:0906950074012CFAAB3FAD40AE3C
:01069E003427
:0B069F00C3EA9EE433FF8B3F8D408ECA
:0406AA0034EF603891
:0D06AE00C002C003C004C005C006C024C0C7
:0406BB0025C02674BC
:0806BF00CEC0E07406C0E0C0EB
:0706C70022C02375822022EE
:0E06CE00158115811581D006D005D004D0030A
:0706DC00D0020BBB00010D71
:0306E3001E80B9BD
:0306E60030052CB0
:0706E900C004C024C025C0BD
:0606F000267401C0E07455
:0606F60007C0E0C022C0B5
:0506FC002375822D2290
:0C070100158115811581D004053FE4B579
:04070D003F02054062
:0407110015348061BA
:05071500BC0002805C45
:03071A0030032C7D
:07071D00C004C024C025C088
:06072400267435C0E074EC
:06072A0007C0E0C022C080
:050730002375822B225D
:0C073500158115811581D004053FE4B545
:040741003F0205402E
:040745001534802DBA
:0307490030042A4F
:07074C00C004C024C025C059
:06075300267464C0E0748E
:0607590007C0E0C022C051
:05075F00237582202239
:0C076400158115811581D004053FE4B516
:040770003F020540FF
:0207740015343A
:030776002001530C
:05077900AA3FAB40ADFA
:01077E003446
:0C077F008D061D8D34C3EC9EE433FE8A11
:06078B003F8B40EE604CC4
:030791003002042F
:040794007E30800231
:020798007E20C1
:0C079A00C002C003C004C005C024C0257C
:0707A600C02674B7C0E07427
:0607AD0007C0E0C022C0FD
:0407B300238E8222ED
:0E07B700158115811581D005D004D003D00224
:0507C5000ABA00B60BAA
:0207CA0080B3FA
:0607CC00C3EC9534500857
:0807D200E534C39CF5348003FB
:0307DA0075340073
:0507DD00A83BAA3FABA0
:0307E200408C0543
:0A07E5008D061D8A3F8B40EE603543
:0507EF00B20920090C15
:0C07F400088606EEC4540FFE8E2B800712
:070800008606740F5EF52B64
:0C080700852B82C002C003C005C0001297
:0E081300007BD000D005D003D0020ABA00C48A
:010821000BCB
:0208220080C193
:0608240020010302013671
:02082A00AD34EB
:0C082C008D061DC3E49EE433FE8A3F8B62
:0708380040EE7003020136DF
:0B083F00C002C003C005C024C025C0DB
:06084A0026745BC0E0749F
:0608500008C0E0C022C058
:05085600237582202241
:0E085B00158115811581D005D003D0020ABA8F
:0308690000C10BC0
:02086C0080BE4C
:05086E00C024C025C0FC
:06087300267483C0E0744E
:0608790008C0E0C022C02F
:04087F00238C822222
:0C088300158115811581053FE4B53F0289
:02088F00054022
:030891000201362B
:06089400853F82854083D0
:01089A00223B
:06089B00495843502D00F6
:0B08A1003C4E4F20464C4F41543E009F
:0A08AC00AA82AB83ACF07D007E0051
:0E08B6008A828B838CF01208D4FFA3AA82AB37
:0408C40083EF600757
:0708C8000DBD00EA0E80E700
:0408CF008D828E8305
:0108D3002202
:0309280075814096
:0A092B00120910E5826003020003C8
:0E08D400E5F060101460151460141460131425
:0608E20014600374FF2204
:0808E800C000A882E6D0002246
:0208F000E02204
:0208F20093224F
:0808F400C000A882E2D000223E
:0508FC00AA82BA3000E1
:020901004009AB
:05090300EA24C64004D7
:0409080075820122D1
:03090C00758200F1
:01090F0022C5
:03091000758200ED
:0109130022C1
:05091400AA82BA610097
:02091900400993
:05091B00EA2485400400
:0409200075820122B9
:03092400758200D9
:0109270022AD
:00000001FF
