:060000000200AB02001D2E
:03010400020006F0
:0500060012000B80FE5A
:0E000B00D288D2A8D2AF75800053B0BF43B0E8
:0100190040A6
:02001A0080FE66
:01001C0022C1
:0E001D00C0E0C002C003C0D075D000E5906006
:01002B0002D2
:02002C0080054D
:05002E007580FF8065F4
:06003300E59024FF500BD4
:0600390074E02590400573
:05003F007580FE8054F5
:0600440074C02590400588
:05004A007580FC8049F7
:06004F0074A0259040059D
:050055007580F8803EFB
:06005A00748025904005B2
:050060007580F0803303
:06006500746025904005C7
:05006B007580E0802813
:06007000744025904005DC
:050076007580C0801D33
:06007B00742025904005F1
:05008100758080801273
:0E008600AA907B00C3EA9400EB648094815042
:010094000368
:0300950075800073
:0600980053B0BF43B0406D
:09009E00D0D0D003D002D0E03232
:0600DA00E478FFF6D8FDFA
:0800B8007900E94400601B7AA5
:0500C00000900107782B
:0300C5000075A023
:0C00C80000E493F2A308B8000205A0D9E0
:0600D400F4DAF275A0FF52
:0800E0007800E84400600A7991
:0300E8000075A000
:0600EB0000E4F309D8FC5B
:0800F1007800E84400600C797E
:0B00F90000900000E4F0A3D8FCD9FA4E
:0300AB0075810755
:0A00AE001200A7E5826003020006BD
:0300A7007582005F
:0100AA002233
:00000001FF
