:03000000020447B0
:0304A00002000354
:0500030012000880FE60
:0E0008007A007B00759850758920758DF3D2B3
:050016008E7C007D005E
:0B001B00C3EC9405ED64809480502934
:0C002600EC2496F582ED3403F583E4939E
:0E003200FEF582C002C003C004C0051201D852
:0E004000D005D004D003D0020CBC00CF0D8040
:01004E00CCE5
:04004F007C007D00B4
:0B005300C3EC9403ED6480948050190E
:0D005E008C06EDCE25E0CE33FFEE2408F831
:0C006B0076FF0876FF0CBC00DF0D80DC87
:0E007700C002C0031201E6AC82AD83D003D0FC
:0C00850002EC2485F582ED3403F583E4E1
:0D00910093FEF582C002C003C004C005123A
:0E009E0001D8D005D004D003D002ED20E7CB6E
:0E00AC00C3740F9C74808DF063F08095F0405B
:0100BA00BC89
:0600BB00BC0C32BD002F59
:0400C1007A007B0046
:0B00C500C3EA9403EB648094805019A0
:0D00D0008A06EBCE25E0CE33FFEE2408F8C3
:0C00DD0076FF0876FF0ABA00DF0B80DC1B
:0700E9007A007B00020077A2
:0600F000BC0A35BD003220
:0E00F60090000875F000C002C003120143AE76
:0D01040082AF83D003D002EE2485F582EF98
:0D0111003403F583E493FEF582C002C003C1
:0A011E001201D8D003D002020077CE
:0D0128008A06EBCE25E0CE33FFEE2408F86A
:0A013500A60408A6050ABA00010B93
:03013F0002007744
:01014200229A
:0E014300AA82AB83ACF074022AFDE43BFE8C72
:0D015100078D828E838FF01203E3FDA31251
:0E015E0003E3FE8A828B838CF01203E3FFA37F
:0E016C001203E3F874042AFAE43BFB8A828B48
:0E017A00838CF01203E3FAA31203E3FB7C0074
:080188007900BD0B14BE00114B
:090190008A0E8B0F8F8288831206
:08019900040BAC82A983803243
:0601A100BD0D0BBE0008BD
:0801A700EA2FFCEB38F980247B
:0601AF00BD0E0CBE0009AC
:0901B500EFC39AFCE89BF98015E8
:0601BE00BD0F12BE000F90
:0901C4008A0E8B0F8F82888312D2
:0601CD00039DAC82A98332
:0401D3008C8289830E
:0101D7002205
:0301D80085829984
:0801DB00A299B3E433FA70F8B5
:0201E300C299BF
:0101E50022F7
:0401E6007AFF7BFF22
:0401EA007C007D0018
:0E01EE00C3EC9404ED64809480400302030D82
:0C01FC00EC2451F582ED3403F583E4930C
:0C020800FE8E90E590FFB506030202FF99
:0C021400EC2475F582ED3403F583E493CF
:07022000FEE590FFB5061D8D
:0D0227008C06EDCE25E0CE33FFEE2455F51C
:0D02340082EF3403F583E493FA740193FB29
:030241000202FFB7
:0E0244008C0674042E90037593FFE590F8B5B8
:02025200073172
:0E02540074042EC2D575F00230E704B2D5F462
:010262000497
:0E026300A430D50AF42401C5F0F43400C5F02F
:0C0271002455F582740335F0F583E49306
:08027D00FA740193FB0202FF79
:0E02850074082E90037593FFE590F8B50730CE
:0E02930074082EC2D575F00230E704B2D5F41F
:0102A1000458
:0E02A200A430D50AF42401C5F0F43400C5F0F0
:0C02B0002455F582740335F0F583E493C7
:0702BC00FA740193FB803C82
:0E02C300740C2E90037593FFE590F8B5072E8E
:0E02D100740C2EC2D575F00230E704B2D5F4DD
:0102DF00041A
:0E02E000A430D50AF42401C5F0F43400C5F0B2
:0C02EE002455F582740335F0F583E49389
:0502FA00FA740193FB02
:0602FF00BAFF0BBBFF0873
:050305000CBC00010D1D
:03030A000201EEFF
:09030D00BAFF06BBFF030201EA7E
:08031600EC2451FCED3403FD61
:0E031E008C828D83E493FE8E90E590FFB506F1
:01032C00F1DF
:04032D008A828B83B2
:0103310022A9
:08033200AA82AB837C007D0070
:0E033A00C3EC9AED64808BF063F08095F05078
:0103480007AD
:070349000CBC00ED0D80EA81
:01035000228A
:04035100FEFDFBF7BB
:0E0355000100020003000C0004000500060079
:0E0363000D000700080009000E000A0000004F
:040371000B000F006E
:0E037500EEEDEBE7DEDDDBD7BEBDBBB77E7D78
:020383007B7786
:0E038500303132333435363738393D2F632B63
:030393002D2A0010
:0703960048656C6C6F20004C
:06047600E478FFF6D8FD5A
:080454007900E94400601B7A05
:05045C00009004A378EC
:030461000075A083
:0C04640000E493F2A308B8000205A0D940
:06047000F4DAF275A0FFB2
:0C039D00E582850EF0A4C582C0F0850F3B
:0D03A900F0A4D0F025F0C583850EF0A4254A
:0403B60083F5832226
:08047C007800E84400600A79F1
:030484000075A060
:0604870000E4F309D8FCBB
:08048D007800E84400600C79DE
:0B04950000900000E4F0A3D8FCD9FAAE
:0503BA007A10E4FBFCD9
:0E03BF00E58225E0F582E58333F583EB33FB21
:0C03CD00EC33FCEB950EF5F0EC950F40C6
:0703D90006FCABF0438201BA
:0303E000DADD2241
:0304470075810FAD
:0A044A00120443E582600302000380
:0E03E300E5F06010146015146014146013141B
:0603F10014600374FF22FA
:0803F700C000A882E6D000223C
:0203FF00E022FA
:02040100932244
:08040300C000A882E2D0002233
:0E040B00C2D5E58330E70DD2D5E4C39582F566
:0604190082E49583F583E7
:0C041F00E50F30E70DB2D5E4C3950EF5F3
:05042B000EE4950FF541
:010430000FBC
:0E0431001203BA30D50BE4C39582F582E49530
:03043F0083F583BF
:010442002297
:03044300758200BF
:010446002293
:00000001FF
