:0600000002010302005999
:03000B00020030C0
:03015C0002000E90
:05000E0012001380FE4A
:0E00130075880075890175B80175A883758A16
:0C002100DF758CB1D28C7590FF75080063
:02002D0080FE53
:01002F0022AE
:0E003000C0E0C0D075D000758ADF758CB105B8
:06003E0008E508B43210D1
:05004400E590B4FF058A
:0500490075900080032A
:03004E007590FFAB
:030051007508002F
:05005400D0D0D0E03225
:0E005900C0E0C0F0C082C083C002C003C0047B
:0E006700C005C006C007C000C001C0D075D0E3
:0600750000E5B0B4FA083A
:08007B009000001200B1801397
:05008300E5B0B4F9082E
:080088009000011200B1800696
:060090009000021200B115
:0E009600D0D0D001D000D007D006D005D004C5
:0D00A400D003D002D083D082D0F0D0E03263
:0C00B100AA82AB83BA0005BB00028006E7
:0600BD00BA0206BB0003BD
:0300C30075A8839A
:0800C600BA0105BB000280062F
:0600CE00BA0206BB0003AC
:0300D40075A8818B
:0100D7002206
:0800D800AA82AB837C007D00CD
:0E00E000C3EC9AED64808BF063F08095F050D5
:0100EE00070A
:0700EF000CBC00ED0D80EADE
:0100F60022E7
:0800F700FEFDFBF7EFDFBF7F08
:06013200E478FFF6D8FDA1
:080110007900E94400601B7A4C
:050118000090015F787A
:03011D000075A0CA
:0C01200000E493F2A308B8000205A0D987
:06012C00F4DAF275A0FFF9
:080138007800E84400600A7938
:030140000075A0A7
:0601430000E4F309D8FC02
:080149007800E84400600C7925
:0B01510000900000E4F0A3D8FCD9FAF5
:03010300758108FB
:0A0106001200FFE582600302000E04
:0300FF0075820007
:0101020022DA
:00000001FF
