:0400000002055E3265
:01000B0032C2
:0100130032BA
:01001B0032B2
:030023000202FED8
:0505B700E4F515F51646
:0305BC0002002614
:0500260012002B80FE1A
:0C002B00754E01E4F54FC2B2C2B3C2B47E
:07003700E4F515F516FCFDD0
:0B003E00C3EC9405ED64809480502119
:0C004900EC24E9F582ED3404F583E49327
:0E005500FEF582C004C0051204A0D005D00440
:070063000CBC00D70D80D496
:07006A00E4F550F551FEFF23
:09007100E508B40104E509600290
:02007A00800AFA
:06007C00E4F508F509851A
:040082000A9980EB6C
:0C008600C006C00712035485824A85831F
:080092004BD007D006E54A241B
:06009A002CF582E54B3459
:0800A00005F583E493F549E541
:0800A8004AB40C04E54B6002B0
:0200B0008011BD
:0E00B200758201C006C0071204A0D007D00658
:0300C0000202D168
:0900C300E54AB40F04E54B6002AC
:0200CC00805B57
:0600CE00E4F54EF54FF5CC
:0500D40015F516FBFA12
:0E00D900C3EB940AEA6480948040030202D1D3
:0C00E700EB24EEF582EA3404F583E49388
:0E00F300FCF582C002C003C006C0071204A0C4
:0D010100D007D006D003D002EB2417F886FB
:0E010E0082C002C003C006C0071204B3D007AF
:0B011C00D006D003D0020BBB00B30ADA
:0201270080B0A6
:09012900E54EB40104E54F60034A
:030132000201F9CE
:09013500E54AB40E04E54B60023A
:02013E00805AE5
:07014000E4F54CF54DC3E5A9
:0C014700509405E5516480948040030250
:0201530002D1D7
:08015500EE2417FA7B007C0088
:0B015D00C3EB940AEC64809480501205
:0D016800EB2AF8EB240BF98705A6050BBB6D
:0501750000E60C80E330
:0C017A00740A2EFEE43FFF0550E4B5506F
:030186000205511E
:0E018900758201C006C0071204A0D007D00680
:030197000202D190
:0C019A00C3E54A940AE54B648094804061
:0401A600030202D17D
:0C01AA00C3E54C940AE54D64809480404D
:0401B600030202D16D
:0701BA00E54C24EEF582E59F
:0C01C1004D3404F583E493FAF582C00687
:0C01CD00C0071204A0D007D006E54C24A7
:0501D9000BF8A649052A
:0601DE004CE4B54C0205E3
:0101E4004DCD
:0901E500E54CB40A04E54D600389
:0301EE000202D139
:0601F100E4F54CF54D029F
:0201F70002D133
:0801F900E54E7004E54F6003C0
:030201000202D125
:09020400E54AB40B04E54B60026D
:02020D00801758
:0C020F00754E01E4F54F758201C006C079
:0B021B00071204A0D007D0060202D199
:09022600E54AB40D04E54B600348
:03022F000202D1F7
:070232000515E4B5150205F6
:0102390016AE
:09023A00E515B40504E5166002A7
:02024300800534
:05024500E4F515F516BB
:0C024A00C3E5159405E51664809480401F
:04025600030202D1CC
:04025A007A007B00AB
:0B025E00C3EA940AEB648094805068AF
:0C026900EA24EEF582EB3404F583E49304
:0E027500FCF582C002C003C006C0071204A040
:0D028300D007D006D003D00275520AE4F572
:05029000538515828575
:0D0295001683C002C003C006C00712053D5D
:0E02A200AC82AD83D007D006D003D002EC248E
:0D02B00017FCEA2CF88682C002C003C006CD
:0E02BD00C0071204B3D007D006D003D0020A47
:0402CB00BA00900BDA
:0202CF00808D20
:0C02D100C3E54A940AE54B648094804029
:0102DD000E12
:0E02DE007582C0C006C0071204A0D007D0066B
:0D02EC00854982C006C0071204B3D007D0B8
:0402F9000602007188
:0102FD0022DE
:0E02FE00C0E0C0F0C082C083C002C003C004D4
:0E030C00C005C006C007C000C001C0D075D03B
:06031A000010980280179C
:08032000750801E4F509859957
:080328000A7582C01204A085D1
:070330000A821204B38002EF
:02033700C29969
:0E033900D0D0D001D000D007D006D005D0041F
:0D034700D003D002D083D082D0F0D0E032BD
:040354007AFF7BFFB2
:040358007C007D00A8
:0E035C00C3EC9404ED64809480400302047BA3
:0C036A00EC24F8F582ED3404F583E493F4
:0C037600FE8E90E590FFB5060302046DBA
:0C038200EC241CF582ED3405F583E493B7
:07038E00FEE590FFB5061D1E
:0D0395008C06EDCE25E0CE33FFEE24FCF506
:0D03A20082EF3404F583E493FA740193FBB9
:0303AF0002046DD8
:0E03B2008C0674042E90051C93FFE590F8B5A0
:0203C000073103
:0E03C20074042EC2D575F00230E704B2D5F4F3
:0103D0000428
:0E03D100A430D50AF42401C5F0F43400C5F0C0
:0C03DF0024FCF582740435F0F583E493EF
:0803EB00FA740193FB02046D9A
:0E03F30074082E90051C93FFE590F8B50730B6
:0E04010074082EC2D575F00230E704B2D5F4AF
:01040F0004E8
:0E041000A430D50AF42401C5F0F43400C5F080
:0C041E0024FCF582740435F0F583E493AF
:07042A00FA740193FB803C12
:0E043100740C2E90051C93FFE590F8B5072E75
:0E043F00740C2EC2D575F00230E704B2D5F46D
:01044D0004AA
:0E044E00A430D50AF42401C5F0F43400C5F042
:0C045C0024FCF582740435F0F583E49371
:05046800FA740193FB92
:06046D00BAFF0BBBFF0803
:050473000CBC00010DAE
:0304780002035C20
:09047B00BAFF06BBFF030203589F
:08048400EC24F8FCED3404FD4A
:0E048C008C828D83E493FE8E90E590FFB50682
:01049A00F170
:04049B008A828B8343
:01049F00223A
:0E04A000AA829003E8C0021204CAD0028AA009
:0404AE00D2B4C2B44E
:0104B2002227
:0E04B300AA829003E8C0021204CAD0028AA0F6
:0804C100D2B4D2B2C2B4C2B23F
:0104C9002210
:0804CA00AA82AB837C007D00D7
:0E04D200C3EC9AED64808BF063F08095F050DF
:0104E0000714
:0704E1000CBC00ED0D80EAE8
:0104E80022F1
:0504E900380E060201BF
:0A04EE0080818283848586878889D7
:0404F800FEFDFBF713
:0E04FC000100020003000C00040005000600D1
:0E050A000D000700080009000E000A000000A6
:040518000B000F00C5
:0E051C00EEEDEBE7DEDDDBD7BEBDBBB77E7DCF
:02052A007B77DD
:0E052C0030313233343536373839616263642A
:03053A00656600F3
:06058D00E478FFF6D8FD42
:08056B007900E94400601B7AED
:05057300009005BF78B7
:030578000075A06B
:0C057B0000E493F2A308B8000205A0D928
:06058700F4DAF275A0FF9A
:0C053D00E5828552F0A4C582C0F0855311
:0D054900F0A4D0F025F0C5838552F0A42564
:0405560083F5832284
:080593007800E84400600A79D9
:03059B000075A048
:06059E0000E4F309D8FCA3
:0805A4007800E84400600C79C6
:0B05AC0000900000E4F0A3D8FCD9FA96
:03055E0075815351
:0A05610012055AE58260030200262D
:03055A00758200A7
:01055D00227B
:00000001FF
