:0300000002023BBE
:0302940002000362
:0500030012000880FE60
:0E000800759850758920758DE6D28E7A007B32
:0100160000E9
:0B001700C3EA9405EB64809480502144
:0C002200EA2430F582EB3402F583E4930D
:0E002E00FCF582C002C003120072D003D002A3
:07003C000ABA00D70B80D4C3
:0B004300120080AA82E583FB20E7F595
:0E004E00C3740F9A74808BF063F08095F040BD
:01005C00E6BD
:0C005D00EA241FF582EB3402F583E493E3
:08006900FAF58212007280D248
:01007100226C
:03007200858299EB
:08007500A299B3E433FA70F81C
:02007D00C29926
:01007F00225E
:040080007AFF7BFF89
:040084007C007D007F
:0E008800C3EC9404ED6480948040030201A751
:0C009600EC24EBF582ED3401F583E493DB
:0C00A200FE8E90E590FFB5060302019968
:0C00AE00EC240FF582ED3402F583E4939E
:0700BA00FEE590FFB5061DF5
:0D00C1008C06EDCE25E0CE33FFEE24EFF5EA
:0D00CE0082EF3401F583E493FA740193FB93
:0300DB0002019986
:0E00DE008C0674042E90020F93FFE590F8B587
:0200EC000731DA
:0E00EE0074042EC2D575F00230E704B2D5F4CA
:0100FC0004FF
:0E00FD00A430D50AF42401C5F0F43400C5F097
:0C010B0024EFF582740135F0F583E493D5
:08011700FA740193FB02019947
:0E011F0074082E90020F93FFE590F8B507309C
:0E012D0074082EC2D575F00230E704B2D5F486
:01013B0004BF
:0E013C00A430D50AF42401C5F0F43400C5F057
:0C014A0024EFF582740135F0F583E49396
:07015600FA740193FB803CE9
:0E015D00740C2E90020F93FFE590F8B5072E5C
:0E016B00740C2EC2D575F00230E704B2D5F444
:010179000481
:0E017A00A430D50AF42401C5F0F43400C5F019
:0C01880024EFF582740135F0F583E49358
:05019400FA740193FB69
:06019900BAFF0BBBFF08DA
:05019F000CBC00010D85
:0301A400020088CE
:0901A700BAFF06BBFF030200844D
:0801B000EC24EBFCED3401FD31
:0E01B8008C828D83E493FE8E90E590FFB50659
:0101C600F147
:0401C7008A828B831A
:0101CB002211
:0801CC00AA82AB837C007D00D8
:0E01D400C3EC9AED64808BF063F08095F050E0
:0101E2000715
:0701E3000CBC00ED0D80EAE9
:0101EA0022F2
:0401EB00FEFDFBF723
:0E01EF000100020003000C00040005000600E1
:0E01FD000D000700080009000E000A000000B7
:04020B000B000F00D5
:0E020F00EEEDEBE7DEDDDBD7BEBDBBB77E7DDF
:02021D007B77ED
:0E021F0030313233343536373839616263643A
:03022D0065660003
:0702300048656C6C6F2000B3
:06026A00E478FFF6D8FD68
:080248007900E94400601B7A13
:05025000009002977808
:030255000075A091
:0C02580000E493F2A308B8000205A0D94E
:06026400F4DAF275A0FFC0
:080270007800E84400600A79FF
:030278000075A06E
:06027B0000E4F309D8FCC9
:080281007800E84400600C79EC
:0B02890000900000E4F0A3D8FCD9FABC
:03023B00758107C3
:0A023E00120237E58260030200039C
:03023700758200CD
:01023A0022A1
:00000001FF
