:030000000200ED0E
:03014600020003B1
:0500030012000880FE60
:06000800750AA8750B61EA
:0A000E00750801E4F5097A0A7B0089
:0E001800C002C00312004DD003D0021ABAFF7E
:02002600011BBC
:04002800EA4B70EC43
:0A002C00750802E4F5097A0A7B006A
:0E003600C002C00312004DD003D0021ABAFF60
:02004400011B9E
:04004600EA4B70EC25
:02004A0080C272
:01004C002291
:09004D00E508B40104E5096002B4
:020056008035F3
:040058007A007B00AF
:0B005C00C3EA9404EB64809480505EC3
:0C006700EA24E5F582EB3400F583E49315
:0C007300F590850A82850B83C002C00353
:0E007F001200C6D003D0020ABA00D20B80CF06
:09008D00E508B40204E509600174
:010096002247
:040097007A037B006D
:04009B00EB20E72649
:0C009F00EA24E5F582EB3400F583E493DD
:0C00AB00F590850A82850B83C002C0031B
:0E00B7001200C6D003D0021ABAFFD91B80D6A1
:0100C5002218
:0800C600AA82AB837C007D00DF
:0E00CE00C3EC9AED64808BF063F08095F050E7
:0100DC00071C
:0700DD000CBC00ED0D80EAF0
:0100E40022F9
:0400E5000903060CF9
:06011C00E478FFF6D8FDB7
:0800FA007900E94400601B7A63
:050102000090014978A6
:030107000075A0E0
:0C010A0000E493F2A308B8000205A0D99D
:06011600F4DAF275A0FF0F
:080122007800E84400600A794E
:03012A000075A0BD
:06012D0000E4F309D8FC18
:080133007800E84400600C793B
:0B013B0000900000E4F0A3D8FCD9FA0B
:0300ED0075810B0F
:0A00F0001200E9E58260030200033C
:0300E9007582001D
:0100EC0022F1
:00000001FF
